:020000040800F2
:10000000180600204901000881220008ED1A0008A6
:100010007F2200083D190008C931000800000000D7
:100020000000000000000000000000005B0100086C
:10003000F1190008000000005F01000861010008DC
:100040006301000863010008630100086301000800
:1000500063010008630100086301000863010008F0
:1000600063010008630100086301000863010008E0
:1000700063010008630100086301000863010008D0
:1000800063010008630100086301000863010008C0
:1000900063010008630100086301000863010008B0
:1000A00063010008630100086301000863010008A0
:1000B0006301000863010008630100086301000890
:1000C0006301000863010008630100086301000880
:1000D0006301000863010008752E00086301000831
:1000E0006301000863010008630100086301000860
:1000F0006301000863010008630100086301000850
:10010000630100086301000863010008630100083F
:1001100063010008630100088128000863010008EA
:10012000630100086301000863010008630100081F
:10013000DFF810D000F0B4FC00480047315200084E
:10014000AFF30080180600200648804706480047A5
:10015000FEE7FEE7FEE7FEE7FEE7FEE7FEE7FEE777
:10016000FEE7FEE759260008310100082DE9F041BD
:100170000024061B254671F1000605DA012400273C
:10018000D0EB070067EB0101161E73F1000605DADC
:100190000027D2EB0702012567EB030300F08AFB7F
:1001A00086460E4617469C46AC4204D00025D0EB4E
:1001B000050E65EB010624B10020D2EB000760EBD1
:1001C000030C704631463A466346BDE8F081D2B230
:1001D00001E000F8012B491EFBD270470022F6E730
:1001E00010B513460A4604461946FFF7F0FF2046AD
:1001F00010BD30B504460020034600E05B1C93426E
:1002000003D2E05CCD5C401BF8D030BDF0B480EA96
:100210000102D40F4200B2EB410F02D2024608465F
:1002200011464A0042D0C30DDDB2C1F3C752AD1A28
:10023000202D35DAC1F3160141F4000204B1524217
:10024000C5F1200602FA06F12A411044B3EBD05F53
:1002500023D0C4B1012DA0EBC35009DCF0BC4FF09A
:10026000004202EAC352DBB200F5000000F08DBB91
:10027000400000F1807000EBC350A0F1807040EAB4
:10028000D170490009E0490841EAC071A0EBC350B0
:1002900000F50000400800EBC350F0BC00F06CBB60
:1002A0006142012202EB4101001BF6E7F0BC7047FE
:1002B00081F00041AAE780F00040A7E780EA010250
:1002C00010B502F00043400022D04A001FD0010EBA
:1002D00001EB1261C0F35600C2F3560240F4000075
:1002E00042F40002A0FB022000047F39140400D075
:1002F000401C50EA124001D44000491EC2B20C0614
:1003000004EBD010401C4008802A02D003E00020FB
:1003100010BD20F00100002900DA0020184310BDB4
:1003200030B480EA010202F0004530F0004221F0D2
:10033000004013D090B1C30DD40DC2F31601C0F329
:100340001600E41A41F4000140F400027D349142A9
:1003500001D3641C00E04900002C02DA30BC00200C
:1003600070474FF400000023914201D3891A0343E0
:1003700040084FEA4101F7D151B1914202D14FF00B
:10038000004105E002D24FF0010101E06FF00101F0
:1003900003EBC450284430BC00F0EEBA420005D054
:1003A000C0F3C7525242914201DC0020704700EB7B
:1003B000C15070472DE9FE4F804681EA0300C00F0F
:1003C0000C46009021F0004123F00045B8EB0200FC
:1003D000A94105D24046214690461C460B4602469E
:1003E00023F00040104347D0270DC7F30A00C3F3A2
:1003F0000A510290401A019040286BDAC3F31300AF
:1004000040F4801B0098924620B10023D2EB030AEF
:1004100063EB0B0B01985946C0F14002504600F0C7
:100420007AFA06460D4650465946019A00F092FA6D
:1004300010EB08006141002487EA115284EAE77357
:100440001A4340D0009A62B3019A012A4FEA075238
:1004500015DC001B61EB02014FF0004202EA07527B
:10046000CDE90042001C41F5801132462B4600F0D8
:10047000C9FA03B0BDE8F08F40462146F9E7001BFA
:1004800061EB0201001C41F5801300185B4120184C
:10049000A2F5001747EB030140EAD570B6196D418C
:1004A00011E06D084FEA360645EAC0754FEA07527B
:1004B000001B61EB0201001C41F5801149084FEA65
:1004C00030000019514132462B4603B0BDE8F04FD1
:1004D00000F089BA0098012240000023D0EB02020C
:1004E00063EBE073009821464FEAE074B8EB00003C
:1004F00061EB0401E9E783F000435BE781F0004131
:1005000058E72DE9FE4F81EA030404F0004421F08E
:10051000004100944FF0000B23F0004350EA010427
:100520005ED052EA03045BD0C3F30A54C1F30A5508
:100530002C44A4F2F3340194A0FB0254C1F3130140
:1005400041F48011C3F3130343F4801301FB02440D
:1005500000FB034E840A970A44EA815447EA835712
:10056000A4FB076802958D0A05FB07854FEA932CCB
:1005700004FB0C542705029D4FEA065847EA16373C
:10058000B5EB08056EEB070C870E920E47EA811754
:1005900042EA8312A7FB0201B6EB0B0164EB0004F5
:1005A0002B0D43EA0C335E1844EB1C50DA465146DF
:1005B000E7FB0201C5F313044FEA0B3343EA14537C
:1005C0004FEA0432019C43EA0603A4F10C040294AE
:1005D000009CCDE900B400F015FA03B0BDE8F08F3F
:1005E00000200146F9E72DE9F04D81EA030404F00B
:1005F000004B21F0004514464FF0000A23F0004163
:1006000050EA050220D054EA01021DD0C5F30A5772
:100610000246C5F31303C1F31300C1F30A5640F4B5
:10062000801543F48013A7EB0608101BD64608F28A
:10063000FD3873EB050002D308F1010801E09218C0
:100640005B41B8F1000F03DA00200146BDE8F08DF0
:1006500000204FF48011064684460EE0171B73EB12
:10066000050705D3121B63EB050306434CEA010C97
:1006700049084FEA300092185B4150EA0107EDD17A
:1006800052EA030012D082EA040083EA050108431B
:1006900005D0101BAB4106D20122002306E0002248
:1006A0004FF0004302E06FF0010253101AEB060016
:1006B0004CEB085110EB0A0041EB0B01BDE8F04D8B
:1006C00000F091B970B521F0004303430CD0C1F3A1
:1006D0000A550024D5EB040564EB0403D617AD1AC4
:1006E000B34102DB0020014670BD201841EB0251EE
:1006F00070BDC10F80EAE0700844CA07962300214C
:1007000000F043B996230022114600F03EB90EB521
:10071000C10F80EAE0700844CA07002140F2334369
:100720008DE80E000A460B4600F06CF903B000BDE0
:1007300000F0004220F00040C10DC0F3160040F46C
:1007400000007F2901DA00207047962903DCC1F1FF
:100750009601C84001E096398840002AF4D0404212
:10076000704720F00040C10DC0F3160040F40000B7
:100770007F2901DA00207047962903DCC1F1960138
:10078000C840704796398840704770B5C1F30A5227
:1007900001F000450024C1F3130140F2FF3341F49E
:1007A00080119A4201DA002070BD40F233439A4230
:1007B000A2F2334203DC524200F0BCF800E0904069
:1007C0002C43F1D0404270BD00F0004230F00040B8
:1007D0000AD0C10D01F56071C0F3160042EA015163
:1007E000C2084007114370470020014670470000CF
:1007F00030B5041E71F1000404DB4FF000444042A8
:1008000064EB0101141E73F1000405DB1C464FF07C
:100810000043524263EB04038B4208BF824230BD67
:1008200030B5041E71F1000404DB4FF00044404277
:1008300064EB0101141E73F1000405DB1C464FF04C
:100840000043524263EB0403994208BF904230BD1B
:1008500001F0004330B421F0004150EA010206D01B
:100860000A0DA2F56072C1F31301002A02DC30BC4C
:1008700000207047440F44EAC104C100E01830BCB6
:1008800000EBC25000F078B830B50B4601460020AE
:100890002022012409E021FA02F59D4205D303FA42
:1008A00002F5491B04FA02F52844151EA2F10102C3
:1008B000F1DC30BD2DE9F05F0546002092469B46F5
:1008C00088460646814640241BE028464146474666
:1008D000224600F02FF853465A46C01A914110D3D1
:1008E00011461846224600F016F82D1A67EB01084B
:1008F0004F4622460120002100F00DF817EB0009B9
:100900004E41201EA4F10104DFDC484631462A4650
:100910004346BDE8F09F202A04DB203A00FA02F1AA
:10092000002070479140C2F1200320FA03F31943DD
:1009300090407047202A04DB203A21FA02F000217F
:10094000704721FA02F3D040C2F1200291400843DF
:1009500019467047202A06DBCB17203A41FA02F0ED
:1009600043EAE07306E041FA02F3D040C2F120020C
:1009700091400843194670470029A8BF7047401CA2
:10098000490008BF20F00100704710B4B0FA80FCA5
:1009900000FA0CF050EA010404BF10BC704749B1E2
:1009A000CCF1200421FA04F411FA0CF118BF012152
:1009B00021430843A3EB0C01CB1D4FEA00614FEA32
:1009C000102042BF002010BC704700EBC350104401
:1009D0000029A4BF10BC7047401C490008BF20F08C
:1009E000010010BC704710B5141E73F1000408DA42
:1009F000401C41F1000192185B411A4301D120F0E3
:100A0000010010BD2DE9F04D92469B4611B1B1FA9F
:100A100081F202E0B0FA80F220329046FFF77BFFCD
:100A200004460F4640EA0A0041EA0B0153465A4683
:100A3000084313D0114653EA010019D0C8F140020F
:100A40005046FFF777FF05460E4650465946424648
:100A5000FFF761FF084305D0012004E02046394636
:100A6000BDE8F08D0020054346EAE0762C4337438D
:100A70000A986305E40AA0EB08000022FD0A44EA94
:100A800047540A3002D500200146E9E70105101954
:100A90006941DDE9084500196941BDE8F04DA2E76B
:100AA000064C074D06E0E06840F0010394E80700BB
:100AB00098471034AC42F6D3FFF73EFB986F00081E
:100AC000B86F00082DE9F04D00231A461B1A8A4121
:100AD00003DB00200146BDE8F08DC1F30A52C1F3EB
:100AE000130141F480154FF0000BD10702D100181B
:100AF0006D41521E0027044640F2FF11384601EBBB
:100B0000620A3E468046024600204FF48011FFF7FD
:100B100011FFC2197141BB1846EB0100B4EB030C85
:100B200075EB000C04D3E41A65EB000517460E467E
:100B3000241908F101006D4180463428E3DDF919DC
:100B400046EB0600091BA84103D24FF0FF321346C3
:100B500001E0002213461BEB070046EB0A51BDE8FB
:100B6000F04DFFF740BF0EB540F233410291002136
:100B7000CDE900110A460B46FFF744FF03B000BD64
:100B800070B58C1810F8015B15F0070301D110F84F
:100B9000013B2A1106D110F8012B03E010F8016B7C
:100BA00001F8016B5B1EF9D12B0705D40023521EFF
:100BB0000DD401F8013BFAE710F8013BCB1A921C67
:100BC00003E013F8015B01F8015B521EF9D5A14265
:100BD000D8D3002070BD0029816802D041F0010106
:100BE00001E021F001018160704700000D4910B55E
:100BF000884202D1012144150AE00B49884202D102
:100C00000121041504E0094988420AD10121CC03DD
:100C1000204601F03DFC2046BDE81040002101F0D7
:100C200037BC10BD0024014000280140003C0140B9
:100C3000014600208968490700D501207047014618
:100C400000208968090700D50120704710B5426867
:100C50000E4B0C791A400B6842EA0422134343609E
:100C600082680B4B1A40D1E9024323434C7942EA94
:100C7000440213438360C26A097C22F47002491E55
:100C8000C9B242EA0151C16210BD0000FFFEF0FF8F
:100C9000FDF7F1FF70B5072609290AD9C568A1F14A
:100CA0000A0404EB4404A640B543A3401D43C560B9
:100CB00007E0056901EB4104A640B543A3401D438D
:100CC00005611F23072A09D2446B521E02EB8202E0
:100CD00093409C4391400C43446370BD0D2A09D25C
:100CE000046BD21F02EB820293409C4391400C4361
:100CF000046370BDC46A0D3A02EB820293409C43C8
:100D000091400C43C46270BD816841F0080181606C
:100D10007047816841F0040181607047F0B53A4C3A
:100D2000064687B0A06940F00900A061E06940F084
:100D30000200E061354D286820F47F0040F488000F
:100D400028600121324800F0A3FE206940F0020033
:100D50002061206920F00200206100242D4FADF8B1
:100D60000C40ADF81060ADF81240ADF80E4003A98C
:100D7000384601F0EDFF00231A460321384601F002
:100D800067FE684601F022FF0626ADF80860694656
:100D9000384601F085FE1F48243004800121384682
:100DA00001F093FDC020ADF8180004208DF81B0061
:100DB00003208DF81A0006A9284600F01AFE01212A
:100DC000042001F041FB144D284601F089FD03A9E0
:100DD000284601F0BDFF00231A460321284601F0F2
:100DE00037FE684601F0F2FEADF808606946284615
:100DF00001F056FE0848243004800121284601F005
:100E000064FD07B0F0BD000000100240000C01407E
:100E100000081A000004004000080040014801F0EA
:100E200030BE000000040040014908807047000007
:100E300024040040014801F024BE000000080040E6
:100E40000149088070470000240800402DE9FC5F3C
:100E5000934E0D460188318040880024DFF844A27B
:100E6000DFF844927080A34606F1140806F10C07DF
:100E700036F91400FFF74BFC00224B46FFF7B8FC95
:100E80000CD258F82400FFF742FC00225346FFF72B
:100E9000C7FC03D257F82400401C14E036F91400B4
:100EA000FFF735FC00225346FFF7BAFC0ED258F884
:100EB0002400FFF72CFC00224B46FFF799FC05D2DB
:100EC00057F82400401E47F8240001E047F824B0FA
:100ED000641C022CCCDB724800241C38DFF8CCA147
:100EE0004069FFF771FCCDE9001006466C48009F91
:100EF00000F10C0100F1140951F8241030F91480AC
:100F0000C1EB014159F824004144081AFFF7FFFBE7
:100F100032463B46FFF767FB0AEBC402634FC2E968
:100F2000000149F82480DFF888911037614EDFF81E
:100F30008881641C022C01DA0198D6E7DAE90223E1
:100F4000DAE90001FFF736FA4FF0FF32FFF7BAFB9C
:100F5000C7E9000152481C38B0F90000FFF7D7FB81
:100F6000564A574BFFF7CDFAFFF70FFC4FF0804181
:100F700000B2898E0844FFF7CAFB0022514BFFF7ED
:100F8000BAFA0022504BFFF72EFB504CDFF840A17D
:100F900022465346FFF7B5FA22465346FFF7AEFA0C
:100FA00005F042F8D7E90023FFF7ABFA494A4A4B6C
:100FB000FFF719FBC7E90201B5F90400FFF7A7FB2A
:100FC00000223346FFF70FFB03F0C0F9D7E90023F7
:100FD000FFF797FA00223346FFF793FAFFF7D5FBA6
:100FE000298808442880B5F90400FFF790FB002207
:100FF0003346FFF7F8FA04F0A1FFD7E90023FFF723
:1010000080FA00223346FFF77CFAFFF7BEFB6988BF
:10101000002208446880D7E902013346FFF771FADD
:10102000FFF7B3FBA988084400B2A880FFF76FFB65
:1010300044464246294BFFF7F3FBB5F9040006D2BC
:10104000FFF765FB22464B46FFF755FA0EE0FFF728
:101050005EFB2246224BFFF7CBFB0AD2B5F9040018
:10106000FFF755FB22464B46FFF7A4F9FFF78DFB30
:10107000A880D7E9000100223346FFF742FAFFF7C4
:1010800084FBE880A5F808B0D7E9020100223346C6
:10109000FFF737FAFFF779FB6881BDE8FC9F000096
:1010A000880000204099C940C099C9C0C0010020F3
:1010B0002F8BB84000408F40386744692DB29DEFB8
:1010C000A7C6F13F0070974000409F404AD8124D9C
:1010D000FB210940AE47E17A14AEC73F2F8BA840F1
:1010E0002F8BA8C070B50546B0F90000FFF701FBD3
:1010F0000B49FFF715F90B4C206169882180FFF738
:1011000063FB094A094BFFF7FCF902460B46002036
:101110000749FFF768FAFFF79BFB606170BD0000AD
:1011200000007A446C00002001E4EF87A17EC93FF3
:1011300000808B402DE9F04705460E46B0F90000CF
:10114000FFF7D7FA3D49FFF7EBF80446B5F904007D
:10115000FFF7CFFA3A49FFF7B1F8FFF735FB394A05
:10116000394BFFF740FAFFF773FB3849884200DD3F
:10117000084637490546884200D90D464FF0804061
:10118000844200DD04464FF04040844200D90446CA
:1011900030492846FFF7C4F8FFF716FB2E4A2F4BBD
:1011A000FFF7AFF904F040FF2D4A2E4BFFF7A9F9E6
:1011B0004FF0FF32FFF786FA2B4A2C4BFFF713FA5A
:1011C000FFF746FB4FF07E5980464946FFF71EF871
:1011D0002146FFF773F8074641464846FFF768F88F
:1011E0002146FFF76BF8DFF88C9004462049D9F8C8
:1011F0001400FFF70BF82049FFF792F880463846B5
:101200004146FFF75BF8FFF793FA308020464146EE
:10121000FFF754F8FFF78CFA7080B9F90000FFF778
:1012200068FA044615492846FFF748F82146FFF7B3
:101230003FF8FFF77DFAB080BDE8F08700007A4400
:10124000000034C3386744692F8BA8400000344243
:10125000000034C2000034436F1283C0CA21094029
:101260001F85EB51B81EC53FAE47E17A14AEC73FAC
:10127000CDCC4C3D6C0000200000484200002041D5
:1012800000210C4A002802DD0B49116104E00CDA50
:101290000A491161C0F1000081B24FF4FA60814245
:1012A00000D901460648018070474FF44020106184
:1012B000F8E70000001001400400080008000400E6
:1012C000380C004000210C4A002802DD0B49116156
:1012D00004E00CDA0A491161C0F1000081B24FF458
:1012E000FA60814200D901460648018070474FF4F8
:1012F00040301061F8E700000010014001000200DA
:1013000002000100340C004030B5044689B00121D0
:10131000152001F0B1F80121082001F095F8032112
:10132000ADF8101018228DF813208DF8121004A9B2
:10133000244800F05EFB1020234D8DF8130004A913
:10134000284600F056FB0C20ADF8100004A92846F2
:1013500000F04FFB40F2CF70ADF818002420B0FB36
:10136000F4F0401EADF814000024184DADF81A40FA
:10137000ADF8164005A9284601F0EAFC6020ADF85A
:1013800000000120ADF80200ADF80840ADF80640BD
:101390006946284601F022FC0821284601F05EFC3F
:1013A0006946284601F060FC0821284601F09CFCB3
:1013B0000121284601F07CFA0121284601F085FA36
:1013C00009B030BD0008014000100140000C004091
:1013D0000A8802814A888281898841817047000099
:1013E00070B52548016841F4A00101602248083821
:1013F00001688907FCD520484430006840F6346114
:1014000080B248431D4A000B40F21A431C4C042191
:10141000108098422DD21A4B083B1B685D0704F1DF
:10142000040301D5216000E0196040F2DE34A042DF
:101430001CD25088401C80B25080C82818D919602E
:1014400010484FF4807404600020FFF719FF00205B
:10145000FFF738FF0C4D4FF47A762C611E2001F017
:10146000CDF86C61304601F0C9F8F6E700205080F5
:1014700070BD216070BD00000828014014000020EC
:101480001014014010080140001001407FB5FFF723
:10149000C5FC314CA0F5EA4030382080FFF7CAFC8B
:1014A00047F23055281A60802846FFF7BDFC2846D1
:1014B000FFF7C6FCA4F108002288018811440180CE
:1014C00041886288114441802449FFF7BFFC04F140
:1014D0000801A1F12800FFF72DFE04F1080521887D
:1014E0002888401A01B204F1100000F007FF04F14F
:1014F0001006F08168886188401A01B204F120006A
:1015000000F04AFFF083B4F90000FFF7F2F8009012
:10151000B4F90200FFF7EDF80190B5F90000FFF70C
:10152000E8F80290B5F90200FFF7E3F80390042110
:10153000684601F051FEF089404200B2FFF7A0FE7C
:10154000F08B404200B2FFF7BDFEA88800F5617045
:1015500080B200F005F87FBDAC000020E80100205B
:1015600010B54FF4E161884200D90846FFF7CAF888
:101570000749FEF7A3FE0749FEF748FEFFF7F1F81B
:1015800081B2BDE810404FF0804001F0B7BB0000D1
:101590003F358E3F0000FA4330B589B001210D2060
:1015A00000F06AFF0121084600F04EFF01212848A3
:1015B00000F06EFA0820ADF8100018208DF8130026
:1015C00003208DF8120004A9224800F012FA4FF40B
:1015D0000040ADF8100004A91F4800F00AFA4720A7
:1015E000ADF8140044F61F60ADF8180000244FF069
:1015F0008045ADF81A40ADF8164005A9284601F01F
:10160000A7FB6021ADF800100120ADF8020040F208
:10161000DB50ADF80600ADF808406946284601F0F9
:10162000DDFA0821284601F019FB6946284601F039
:101630001BFB0821284601F057FB0121284601F039
:1016400037F90121284601F040F909B030BD00000A
:1016500000031800000C014000080140114908B5C2
:10166000CA6942F01002CA610F49401E88854720AE
:1016700008854FF6FE700882888940F00100888155
:10168000088840F00100088036208DF80000012015
:101690008DF801008DF802008DF80300684600F017
:1016A000F1FD08BD001002400010004010B586B0EA
:1016B0000121042000F0E0FE0121880300F0DCFE9F
:1016C0004FF40070ADF8100018208DF813000320BF
:1016D000214C8DF8120004A9204600F08AF921154A
:1016E000ADF8101004218DF8131004A9204600F065
:1016F00080F94FF4E13000900020ADF80400ADF81F
:101700000600ADF80800ADF80C000C20134CADF845
:101710000A006946204601F053FC25218DF814107B
:1017200002208DF8150001218DF816108DF8171084
:1017300005A800F0A7FD2021204601F0C5FB0122ED
:1017400040F22551204601F022FC0121204601F003
:10175000BEFB06B010BD000000080140003801408B
:1017600030B587B00121042000F086FE0121480435
:1017700000F06AFE0424ADF8104018208DF8130024
:101780000320214D8DF8120004A9284600F031F9FC
:101790000821ADF810108DF8134004A9284600F078
:1017A00028F94FF4E13000900020ADF80400ADF8C6
:1017B0000600ADF80800ADF80C000C20134CADF895
:1017C0000A006946204601F0FBFB26218DF8141023
:1017D00002208DF8150001218DF816108DF81710D4
:1017E00005A800F04FFD2021204601F06DFB0122ED
:1017F00040F22551204601F0CAFB0121204601F0AC
:1018000066FB07B030BD0000000801400044004006
:1018100070B5002332292BD8164CAA2525705525E2
:1018200065704D1DA570E270002204E0855CA6186D
:10183000521C3571D2B28A42F8D3091DC9B20020B8
:1018400004E0225C401C1A44D3B2C0B28842F8D3F0
:101850006354491C084DCBB20020291F06E0225CCE
:101860002A800A885206FCD5401CC0B29842F6D3A2
:1018700070BD00003000002004440040F0B587B087
:1018800001214FF4816000F0F7FD0126ADF81460EE
:1018900000248DF8174005A91C4800F0AAF8F703AA
:1018A000384600F0C7FD1A4D2846FFF79FF94FF460
:1018B0006020CDE902048DF8044000948DF80540C5
:1018C0008DF8106069462846FFF7C0F9384600F0E9
:1018D000B1FD0723012208212846FFF7DBF901218A
:1018E0002846FFF778F92846FFF70EFA2846FFF753
:1018F000A6F90028FAD12846FFF70BFA2846FFF789
:1019000097F90028FAD107B0F0BD0000000C0140A3
:101910000028014041060748826942F001028261C5
:101920000548426822F0E062426042680A43426031
:10193000704700000010024000000140FEE7000078
:101940001CB530F8071F49BAADF80010418849BAF4
:10195000ADF802108088694640BAADF8040004482A
:10196000FFF736FD024869461030FFF731FD1CBD18
:10197000BC00002030F8071F4ABA04490A8040889A
:1019800040BA48800846FFF7ADBB00008400002045
:1019900030B530F8071F144B49BA09B21980428894
:1019A00041F2883452BA12B25A808088A14240BAB9
:1019B00000B2988000DD21460C4D1980A94200DA62
:1019C00029461980A24200DD22465A80AA4200DA46
:1019D0002A465A80A04200DD20469880A84200DABC
:1019E0002846988030BD00008C00002078ECFFFF76
:1019F0007047F0B5CC78002204F00F03E40601D55F
:101A00008C7823430C784FF00F0C14F0FF0F4FF03D
:101A1000010E1BD005680E880EFA02F42640A6427D
:101A200010D196000CFA06F725EA070703FA06F527
:101A3000CE783D43282E02D0482E02D002E04461E9
:101A400000E00461521C082AE5D305600A88FF2AD9
:101A50001CD94468002202F108060EFA06F50E8829
:101A60002E40AE420ED196000CFA06F7BC4303FAA4
:101A700006F7CE783C43282E00D14561CE78482E1B
:101A800000D10561521C082AE5D34460F0BD000076
:101A9000F0B5144C002801DAE36900E06368450DF5
:101AA0002E0185B2C0F30157B540C0F30342032FA6
:101AB00005D0C6020AD503269640B34307E023F0BB
:101AC0007062636823F07063636002E0AB4343F0CD
:101AD000706201B12A43002801DAE261F0BD626060
:101AE000F0BD00000000014001617047FEE700000A
:101AF0002DE9F04F89B0054608A8734CCDE90040A8
:101B000007AB02AAA91D284602F0BEFD2088C00529
:101B10007ED50298FEF7EDFD6FF01D073946FEF702
:101B20003DFC804660600398FEF7E3FD3946FEF712
:101B300035FC8146A0600498FEF7DBFD3946FEF7D0
:101B40002DFC0646E0600598FEF7D3FD3946FEF70A
:101B500025FC0746206101214046FEF71FFC314667
:101B6000FEF7ACFB06464FF0404841464846FEF7BC
:101B7000A5FB3946FEF7A2FB3146FEF747FBFEF711
:101B800023FE02F0CDF8DFF844A14FF066394A4653
:101B90005346FEF7B6FCFEF75BFE6061E06801218C
:101BA0000646FEF7FBFB83463146FEF787FB0646FB
:101BB000A06841468046FEF781FB4146FEF77EFB6A
:101BC0003146FEF775FB4FF07E51FEF71FFBFEF727
:101BD000FBFD06460F4601216068FEF7DFFB41462C
:101BE000FEF76CFB804658462169FEF767FB4146CD
:101BF000FEF70CFBFEF7E8FD32463B4602F0D8FA52
:101C00004A465346FEF77DFCFEF722FEA06100E047
:101C100056E0216906910846FEF750FBE1688046D0
:101C200008460091FEF74AFBA16807460846019165
:101C3000FEF744FB616806468B465846FEF73EFBBE
:101C40003146FEF7E3FA3946FEF732FB4146FEF72E
:101C50002FFBFEF7B9FD06460F4658460699FEF7DC
:101C60002DFB8046DDE90010FEF728FB4146FEF71C
:101C7000CDFA0121FEF792FBFEF7A6FD32463B4668
:101C800002F096FA4A465346FEF73BFCFEF7E0FDAB
:101C90000F4F0646E0613946A069FEF70FFBFEF7DD
:101CA00047FDA88139466069FEF708FBFEF740FD55
:101CB000E88139463046FEF701FBFEF739FD288200
:101CC00009B0BDE8F08F00000801002066A64C4076
:101CD0000000C84270B503F087FB00285AD1782075
:101CE00004F03EF810F0FF0F02D02BA001F096FA9E
:101CF000782003F0A9FA10F0FF0F02D02CA001F019
:101D00008DFA642003F0F0FF10F0FF0F02D02FA037
:101D100001F084FA02F0AEFC10F0FF0F02D032A006
:101D200001F07CFA3A48044603F05EFA0546E01CEE
:101D300003F05AFA45EAC005A01D03F055FA45EA3A
:101D4000801080B202F058FE10F0FF0F02D031A0D8
:101D500001F064FA40F2731002F064FB10F0FF0F20
:101D600002D033A001F05AFA642002F0ADFD10F069
:101D7000FF0F02D035A001F051FA04F078F80120ED
:101D800003F0D8FE10F0FF0F04D0BDE8704036A07D
:101D900001F044BA70BD00006D70755F7365745FCB
:101DA00073656E736F72206572726F720D0A000038
:101DB0006D70755F636F6E6669677572655F666982
:101DC000666F206572726F720D0A00006D70755F2C
:101DD0007365745F73616D706C655F7261746520AB
:101DE0006572726F720D0A00646D705F6C6F616472
:101DF0005F6D6F74696F6E5F6472697665725F663E
:101E000069726D77617265206572726F720D0A007A
:101E100028010020646D705F7365745F6F7269657F
:101E20006E746174696F6E206572726F720D0A0054
:101E3000646D705F656E61626C655F666561747527
:101E40007265206572726F720D0A0000646D705FBA
:101E50007365745F6669666F5F7261746520657231
:101E6000726F722E0D0A00006D70755F7365745F7E
:101E7000646D705F7374617465206572726F722E29
:101E80000D0A000010B500F055F880216B2000F01D
:101E9000AFF9642000F0B2FB00216B2000F0A8F93C
:101EA00018211B2000F0A4F900211C2000F0A0F94B
:101EB0000021382000F09CF900216A2000F098F9F8
:101EC0000021232000F094F98021372000F090F9C0
:101ED000752000F03BF9682801D0012010BD0121D8
:101EE0006B2000F085F900216C2000F081F90020C2
:101EF00010BD000070B50D4C0025C4F8A0510C4871
:101F0000016821F0F0010160016841F030010160D9
:101F1000C4F8A451022004F5D07400F086FB01201F
:101F20002060022000F081FB256070BD008021420E
:101F3000040C014038B50121082000F09DFA4FF44F
:101F40004070ADF8000010208DF803000320064C0F
:101F50008DF8020069462046FFF74BFD4FF44061C3
:101F60002046FFF7C1FD38BD000C014070B50D4C97
:101F70000026C4F8A0610C48016821F0F00101605E
:101F8000016841F0300101600125C4F8A45102202C
:101F900004F5D07400F049FB2560022000F045FBF9
:101FA000266070BD00802142040C01402DE9F047FD
:101FB000814617480024016821F0F00101600168A2
:101FC00041F080010160134E254627464FF001087D
:101FD000C6F8A071022000F028FBC6F8A0816006B8
:101FE000040ED6F8240108B1641CE4B2022000F00B
:101FF0001CFB6D1CEDB2082DEAD3B9F1000F04D023
:10200000FFF778FF2046BDE8F087FFF7AFFFF9E75D
:10201000040C0140008021422DE9F04105461248A0
:10202000016821F0F0010160016841F030010160B8
:102030000E4E0027C6F8A0713C464FF00108E80993
:10204000C6F8A4016806050EC6F8A081022000F0BB
:10205000ECFAC6F8A071022000F0E7FA641CE4B2C2
:10206000082CECD3BDE8F081040C01400080214233
:1020700070B50D48016821F0F0010160016841F080
:1020800030010160094C0120C4F8A401C4F8A0018A
:10209000022004F5D07400F0C8FA00256560022023
:1020A00000F0C3FA256070BD040C0140008021429D
:1020B0000E4810B5016821F0F0010160016841F09F
:1020C000300101600A4C0020C4F8A001C4F8A4014A
:1020D000022004F5D07400F0A8FA012020606060AE
:1020E000BDE81040022000F0A0BA0000040C01403E
:1020F0000080214270B513480024016821F0F001EE
:102100000160016841F0800101600F4D0126C5F8B2
:10211000A461022000F089FAC5F8A061022000F055
:1021200084FA07E0641CE4B2FA2C03D9FFF7C0FF7D
:10213000012070BDD5F824010028F3D1C5F8A00115
:1021400070BD0000040C01400080214210B504461F
:10215000FFF78EFFD020FFF75FFFFFF7CBFF204692
:10216000FFF75AFFFFF7C6FFFFF782FFD120FFF707
:1021700053FFFFF7BFFF0020FFF718FF0446FFF7EC
:1021800097FF204610BD2DE9F0411C4615460F462D
:102190000646FFF76DFF7006000EFFF73DFFFFF7E5
:1021A000A9FF20B1FFF784FF0120BDE8F081384688
:1021B000FFF732FFFFF79EFFFFF75AFF012000EB0A
:1021C0004600C0B2FFF728FFFFF794FF08E0012D9B
:1021D0000CD00120FFF7EAFE6D1E04F8010BEDB2F2
:1021E000002DF4D1FFF764FF0020DEE70020F1E7C7
:1021F00070B50C460546FFF73BFFD020FFF70CFFFC
:10220000FFF778FF50B92846FFF706FFFFF772FF88
:102210002046FFF701FFFFF76DFF18B1FFF748FFFA
:10222000012070BDFFF744FF002070BD2DE9F04193
:102230001D4616460C460746FFF71AFF7806000EA5
:10224000FFF7EAFEFFF756FF60B92046FFF7E4FE0E
:10225000FFF750FF00240CE0285DFFF7DDFEFFF7DD
:1022600049FF20B1FFF724FF0120BDE8F081641C85
:10227000E4B2B442F0D3FFF71BFF0020F5E7FEE71E
:102280007047000030B50F23C27801780125F2B104
:10229000144A126801F1E02102F4E062C2F5E06242
:1022A000120AC2F10404D3404278A24084781C4050
:1022B0001443220181F80024007800F01F018D40B2
:1022C0004009800000F1E020C0F8005130BD01F06D
:1022D0001F0085404809800000F1E020C0F88051CF
:1022E00030BD00000CED00E00249084302490860DF
:1022F000704700000000FA050CED00E02DE9F04702
:10230000224D0C460646B5F90470B5F9062079420F
:10231000B0F90C0004EB410111444843FEF7E9F920
:102320008246B6F90A006043FEF7E3F9DFF86090F1
:102330004946FDF7C3FF8046B6F90800E11B484354
:10234000FEF7D7F94146FDF761FF5146FDF75EFF05
:102350004946FDF7B3FF0646B5F90200FEF7C9F995
:102360003146FDF753FFFEF7E3F900B26880EF80D6
:102370004FF4FA61AC80884200DD08460549688068
:10238000884200DA08466880BDE8F0876C000020CB
:10239000CDCCCC3D30F8FFFF2DE9F047224D0C4667
:1023A0000646B5F90A70B5F90C207942B0F90C006F
:1023B00004EB410111444843FEF79BF98246B6F90C
:1023C0000A006043FEF795F9DFF860904946FDF793
:1023D00075FF8046B6F90800E11B4843FEF789F90E
:1023E0004146FDF713FF5146FDF710FF4946FDF743
:1023F00065FF0646B5F90800FEF77BF93146FDF7A3
:1024000005FFFEF795F900B22881AF814FF4FA611C
:102410006C81884200DD084605492881884200DA3F
:1024200008462881BDE8F0876C000020CDCCCC3D6B
:1024300030F8FFFF034A516821F4404101435160E5
:102440007047000000100240044A0029D16901D001
:10245000014300E08143D161704700000010024059
:10246000044A0029116901D0014300E08143116150
:102470007047000000100240044A0029916901D011
:10248000014300E081439161704700000010024069
:10249000044A0029D16801D0014300E08143D160A2
:1024A000704700000010024030B5204A5168204BB0
:1024B00011F00C0103D0042901D0082901D00360D8
:1024C00012E05168536801F470114FF0020413F4E4
:1024D000803F04EB914102D053689B0301D5154B1B
:1024E00000E0134B5943016051680F2303EA1111B7
:1024F000114B5C5C0168E14041605468072505EAC6
:1025000014241C5D21FA04F48460546805EAD42480
:102510001B5DD940C1605268032303EA9232064B27
:102520001B1F9A5CB1FBF2F1016130BD001002404B
:1025300000127A0000093D00040000200CB50022C2
:10254000264800920192016841F4803101604FF405
:10255000A063016801F4003101910099491C0091C8
:10256000019911B900999942F3D10168890333D5D2
:10257000012101911A490A6842F010020A600A68B2
:1025800022F007020A600A6842F002020A6041680B
:10259000416041684160416841F480614160416847
:1025A00021F47C114160416841F4E8114160016807
:1025B00041F08071016001688901FCD5416821F01A
:1025C00003014160416841F0020141604168C1F38B
:1025D00081010229FAD10CBD01920CBD001002400C
:1025E000002002404FF0E0210428086903D020F0C9
:1025F00004000861704740F00400FAE742F2283115
:1026000048434FF0E021486100238B61086940F0A6
:10261000010008610869C20701D0C003FAD5086942
:1026200020F0010008618B6170474FF0E02100EB62
:10263000C000486100238B61086940F00100086117
:102640000869C20701D0C003FAD5086920F001006B
:1026500008618B61704700000F4810B5016841F0B8
:102660000101016041680D4A1140416001680C4A56
:1026700011400160016821F480210160416821F46A
:10268000FE0141604FF41F018160FFF757FF0549CC
:102690004FF00060086010BD001002400000FFF81D
:1026A000FFFFF6FE08ED00E02DE9F8434FF4A060CF
:1026B000FFF71AFE0220FFF72DF90120FFF72AF994
:1026C0006FF00400FFF78EFFFEF766FF0121242064
:1026D000FFF7D2FE0425ADF8005010268DF80360F8
:1026E00003278DF8027069462748FFF782F9AC018D
:1026F000ADF8004069462548FFF77BF922481030C5
:102700000560224D10352C6001211020FFF7B4FE2A
:10271000ADF800408DF803601D4E8DF802706946DB
:102720003046FFF766F97461FFF7A8F80A20FEF754
:10273000EBFDFFF715F8FEF7B9FF4FF47A78404646
:10274000FEF78CFF134800F041FD4EF66020FEF7C7
:10275000E5FA47F230573846FEF766FB3846FEF793
:102760006FFBFFF78FFB0746FFF7B4FA012F09D085
:10277000281D046034614046FFF740FF74612C60FF
:10278000BDE8F8833461FEE7001401400008014011
:1027900000100140552E000870B5048C24F001048F
:1027A0000484058B048C4FF6FF7606EA031313436B
:1027B00025F0F3050E4A2B4390420ED00D4A90426D
:1027C0000BD0B0F1804F08D00B4A904205D00B4A95
:1027D000904202D00A4A904202D124F0020201E063
:1027E00024F00A020A4342F001010383018470BD10
:1027F000002C01400034014000040040000800406B
:10280000000C0040F0B5048C24F010040484078B05
:10281000048C4FF6FF7527F4734705EA03333B43F7
:1028200005EA02221A43114B05EA011698420ED01E
:102830000F4B98420BD0B0F1804F08D00D4B98420F
:1028400005D00D4B984202D00C4B984205D124F094
:102850002001314341F0100104E024F0A0030B43B8
:1028600043F0100102830184F0BD0000002C014000
:10287000003401400004004000080040000C00400B
:1028800010B5094C0121204600F0FDF8002809D0C0
:1028900006490A68521C0A602046BDE81040012122
:1028A00000F010B810BD0000001000403C010020F6
:1028B0000029018802D041F0800101E021F080016F
:1028C00001807047C943018270470029018802D006
:1028D00041F0010101E021F0010101807047000099
:1028E0004B4910B5884202D10121C41486E0B0F1F1
:1028F000804F09D0474988420DD101210220FFF7BE
:10290000AFFD0021022064E001210846FFF7A8FD89
:10291000002101205DE04049884206D101210420C8
:10292000FFF79EFD0021042053E03C49884206D178
:1029300001210820FFF794FD0021082049E03849D3
:10294000884206D101211020FFF78AFD00211020C6
:102950003FE03449884206D101212020FFF780FD65
:102960000021202035E03049884202D10121441461
:1029700044E02E49884202D10121CC043EE02C499A
:10298000884202D101210C0538E02A49884202D14F
:1029900001214C0532E02849884206D1012140201E
:1029A000FFF75EFD0021402013E02449884206D154
:1029B00001218020FFF754FD0021802009E02049FB
:1029C00088420AD1841501212046FFF749FD0021E4
:1029D0002046BDE81040FFF743BD1A49884202D1A6
:1029E00001210C040AE01849884202D101214C045B
:1029F00004E0164988420AD101218C042046FFF7E1
:102A000047FD2046BDE810400021FFF741BD10BD45
:102A1000002C01400004004000080040000C004071
:102A2000001000400014004000340140004C014000
:102A3000005001400054014000180040001C0040BC
:102A40000020004000400140004401400048014097
:102A500070B50589048B068C25F007050D434FF6EC
:102A6000FC410C4040F201110C434FF6FF7101EAAA
:102A7000031126F0220611433143058104830184AA
:102A800070BD808C704702460020138A92890B42E9
:102A900002EA010202D0002A00D0012070470000A3
:102AA0002DE9F84F0D4604460888434FDFF80CC166
:102AB000DFF80C81DFF80C914988AA882B894FF048
:102AC000804A48B3042830D04FF6FF760828934652
:102AD00034D0208C9E4620F480502084A38B208C00
:102AE00006EA0132009223F4734306EA0B221A43EA
:102AF00006EA0E331343BC420AD0644508D054455D
:102B000006D0444504D04C4502D02F4A944245D1CA
:102B100020F40050009943E02046FFF73DFEE9888D
:102B20002046BDE8F84F00F0EBB82046FFF76AFEFC
:102B3000E9882046BDE8F84F00F0EAB8208C20F480
:102B400080702084B4F81CE0208C06EA031306EAA7
:102B500001222EF0F30E43EA0B0343EA0E03009228
:102B6000BC420AD0644508D0544506D0444504D040
:102B70004C4502D0144A944203D120F400700099CD
:102B800001E020F42060084340F48070A383208497
:102B9000E9882046BDE8F84F00F0C6B820F40240AE
:102BA000084340F48050A3832084E9882046BDE890
:102BB000F84F00F0C1B80000002C01400034014083
:102BC0000004004000080040000C0040002101808B
:102BD000418001228280C1800181704730B5028C22
:102BE00022F001020284028C8388048B22F002020C
:102BF00024F073050C882C430D8915434A882A4319
:102C0000114DA8420BD0114DA84208D0104DA8423A
:102C100005D0104DA84202D00F4DA8420DD122F090
:102C200008054A8923F440732A4322F004058A8860
:102C30002A438D891D43CB892B4383800483C98814
:102C40008186028430BD0000002C01400034014028
:102C5000004001400044014000480140028B22F046
:102C600008020A430283704770B5028C22F01002FA
:102C70000284028C8388048B0D8824F4E6464FF688
:102C8000FF7404EA052535430E8922F0200204EA88
:102C9000061616434A8804EA02123243104EB04226
:102CA00002D0104EB04215D122F080064A8923F49A
:102CB000406304EA0212324322F040068A8804EAA2
:102CC000021232438E8904EA86061E43CB8904EA47
:102CD0008303334383800583C9880187028470BDE1
:102CE000002C014000340140028B4FF6FF7322F4A8
:102CF000006203EA01211143018370478186704716
:102D0000028B22F00C020283028B0A43028370477B
:102D1000028B22F440620283028B4FF6FF7303EAB8
:102D200001210A4302837047828B22F00C028283C6
:102D3000828B0A4382837047828B22F440628283B3
:102D4000828B4FF6FF7303EA01210A4382837047A7
:102D500030B502881B4C1C4DA0420DD0A8420BD0B0
:102D6000B0F1804F08D0194B984205D0184B9842CB
:102D700002D0184B984203D122F070034A881A43BC
:102D8000154B984206D0154B984203D022F440735D
:102D9000CA881A4302808A8882850A880285A042EE
:102DA0000AD0A84208D00E4A904205D00D4A90425F
:102DB00002D00D4A904201D1097A01860121818217
:102DC00030BD0000002C01400034014000040040F0
:102DD00000080040000C00400010004000140040BB
:102DE000004001400044014000480140FEF7F8BAAD
:102DF0000148FEF77DBE00000402002010B5FEF77A
:102E000045FBBDE8104000F071B900F02DB800009E
:102E10002DE9F0410E4F00244FF6FF763D1D386836
:102E200081B205EBC400C2888A1A324492FBF6F3E1
:102E300006FB132283889A4203DBC18055F83400D5
:102E40008047641CE4B2042CE9D3BDE8F0810000A3
:102E50003C01002003490880081F01884906FCD571
:102E60007047000004380140014800F0FFB800003E
:102E70009101002010B5124C40F22551204600F07F
:102E800067F800281BD0201D00880E4901F11702A9
:102E90000B7898540A781420521CB2FBF0F300FB14
:102EA000132008708878401CC2B28A70142A03D993
:102EB00000208870087048704FF6DF70208010BDC9
:102EC0000044004091010020C9430180704700295F
:102ED000818902D041F4005101E021F40051818147
:102EE0007047000070B500231A4614240BE04578A3
:102EF0001544B5FBF4F604FB165505448618ED7D24
:102F0000521CF570D2B28A42F1D300224C1E05E069
:102F10008518521CED78D2B22B44DBB2A242F7DB0B
:102F20000144094D89784FF48074994202D02C6194
:102F3000002070BD8179054A02EBC10151F8881C5F
:102F400088476C61012070BD00100140180000200E
:102F500070B501F01F0501260024C1F3421306FAE3
:102F600005F2012B0FD0022B0FD0838A4FEA1121DB
:102F70000088134206FA01F600EA060001D000B10B
:102F80000124204670BD8389F0E7038AEEE710B57F
:102F9000C1F3421301F01F040121A140012B07D00E
:102FA000022B07D01430002A026805D00A4304E03F
:102FB0000C30F8E71030F6E78A43026010BD0000DD
:102FC00030B50446008A85B00D464CF6FF710840C6
:102FD000E98801432182A0894EF6F3110840A988AF
:102FE0002A8911436A8902431143A181A08A4FF6BD
:102FF000FF410840A9890143A1826846FFF754FABE
:103000001948844201D1039800E00298A18909047B
:1030100000EBC00101EB0010296801D5490000E078
:103020008900B0FBF1F06422B0FBF2F109010B0959
:103030006FF018056B4300EB8300A3891D044FF06C
:10304000320306D503EBC000B0FBF2F000F007003E
:1030500005E003EB0010B0FBF2F000F00F000843B6
:10306000208105B030BD0000003801402DE9F0415D
:10307000044680786578062836D31427B5FBF7F226
:1030800007FB12512144C97DAA2908D1691CB1FB53
:10309000F7F207FB12112144C97D55290AD0401EC1
:1030A000A0706D1CB5FBF7F007FB1050607003209B
:1030B000BDE8F081A91CB1FBF7F207FB1211214416
:1030C000CE7DB0420ED331462046FFF70BFFA078ED
:1030D000801BA070A819B0FBF7F107FB110060700E
:1030E0000120E5E70220E3E70420E1E73049314829
:1030F0000A88130A037042704A88130A8370C270E8
:103100008A88130A03714271CA88130A8371C271D3
:103110000A89130A037242724A89130A8372C272BD
:103120008A89130A03734273CA89130A8373C273A9
:10313000098A0A0A027441741F490A88130A8374AF
:10314000C2744A88130A037542758A88130A837504
:10315000C275CA88130A037642760A89130A8376EF
:10316000C27649890A0A0277144A417711880B0A04
:103170008377C17751880A0A80F82020104A80F8A6
:10318000211011880B0A80F8223080F82310518812
:103190000A0A80F8242080F825100A4909880A0ABA
:1031A00080F8262080F8271006222821FEF730BB61
:1031B0000402002068010020E8010020AC0000208B
:1031C000B400002014000020FEE700000149486020
:1031D000704700003401002070B50C46054604E03D
:1031E00028462D1D042100F00BF8641EE4B2F7D22E
:1031F000BDE870400421014800F002B8D46C00081A
:1032000070B50D460446044E03E0716814F8010BD6
:1032100088476D1EF9D270BD340100200FB4054BF4
:1032200010B503A9044A029800F092FC10BC5DF8A6
:1032300014FB0000414D000860010020490050EAE5
:10324000C12018BF04204A0D18BF40F0010040F211
:10325000FF72B2EB515F08BF40F00200012808BFC7
:10326000052070472DE9F74F144694B00021C4E9BA
:1032700002111599079121F00045C9498D4206DCDC
:103280001599C4E9000117B00020BDE8F08FC549C9
:10329000DFF814A3A9423CDD0799C44E0029C44FAE
:1032A000C44A1599534619DDFDF725F9554506D051
:1032B000C14AC24BFDF71FF9C4E900010AE04FF013
:1032C000D352BE4BFDF717F932463B46FDF713F9D3
:1032D000C4E9000117B00120BDE8F08FFDF76AF8DE
:1032E000554506D0B44AB54BFDF764F8C4E9000172
:1032F0000AE04FF0D352B14BFDF75CF832463B4643
:10330000FDF758F8C4E9000117B04FF0FF30BDE8F1
:10331000F08FAB49A942159978DB21F00041834633
:103320008846A84AA84BFDF7ECF80022A74BFDF70A
:1033300041F8FDF72AFA0990FDF7E9F906460F462C
:103340009C4A5346FDF7DDF843465A46FDF7D6F84A
:1033500080468A46984A994B30463946FDF7D1F85F
:103360002A0D01250B9242465346FDF7C7F8032D5F
:10337000C4E9000139D00B98C1F30A51401A05EB9A
:1033800045111139814230DA9148C346784400EB47
:103390000510CDF80CA00C90D0E90023304639463A
:1033A000FDF7AFF802460B46049106905846039984
:1033B000FDF7A1F880468A4602460B465846039917
:1033C000FDF799F8049B069AFDF795F883460C984B
:1033D00003913946D0E902233046FDF792F85A4668
:1033E000039BFDF788F86D1CBDE707980028A2BF76
:1033F000099817B0BDE8F08F616881F00041616005
:10340000099817B04042BDE8F08FFFE78446159851
:10341000C1F31301C0F30A50A0F2F5304FEA60186F
:1034200000F01F06C6F120001390002006900790C0
:1034300041F4801E05206D4676B1664A08EB000116
:103440007A4452F8213002EB8101B3404A68139963
:1034500022FA01F1194305E05F4908EB00027944C3
:1034600051F82210A1FB0E27A1FB0C131A449A421B
:1034700034BF0123002303EB070A05EB8003D3E9E4
:1034800001B70F448F4234BF0121002193448B4484
:1034900011B1934502D903E0934501D2012100E027
:1034A0000021C3E901B7514445F82010011EA0F1E5
:1034B0000100C1DC0298059F00F10050800F1290BE
:1034C0000298DDE903568000FDF721F9834628467E
:1034D0000D91FDF748FB6FF01D02FDF7F3F8CDE904
:1034E0000E013046FDF73FFB6FF03D02FDF7EAF8B5
:1034F00080468A463846FDF736FB6FF05D02FDF7E1
:10350000E1F80746424653461191FCF753FFDDE9C7
:103510000E23FCF74FFF5A460D9BFCF74BFF00258F
:103520000E465A4628460D9BFCF7E5FFDDE90E23C3
:10353000FCF7E1FF42465346FCF7DDFF3A46119B9C
:10354000FCF7DCFFDFF898A0244A5346FCF7D9FFCC
:1035500007468846234A244B31462846FCF7D1FFCC
:103560003A464346FCF726FF074688464FF0A842F6
:10357000534631462846FCF7C4FF3A464346FCF71B
:1035800019FF159A12F0004F04D0129A81F00041F1
:1035900052421292C4E90001129817B0BDE8F08FB0
:1035A000FB21E93F7CD90240FB21F93F7370032ED8
:1035B0008A19A33B000040543163621A61B4D03DC4
:1035C000FB21394183C8C96D305FE43F0000E03F13
:1035D000683A0000E4390000C6390000182D445450
:1035E000FB21F93D3326A611460B113C2DE9FF4D79
:1035F00021F0004807460C46B8F1795F08DAFDF77C
:10360000C4F8002801BF0020324904B0BDE8F08DA5
:103610003A46234610461946FCF773FF0546024614
:103620002D480E460B460621784400F05DF82A46E8
:103630003346FCF766FFDDE9022382468B463846B7
:103640002146FCF75EFF04460F4652465B4628467D
:103650003146FCF756FF22463B46FCF74CFF074637
:103660008A464FF0FF3228463146FDF72BF81B4AB9
:1036700090450ADA3A465346FCF73DFF04B0002273
:10368000BDE8F04D134BFCF739BF154A4245A8BFC2
:10369000A8F500154FF00004B8BF124D22462B4686
:1036A000FCF729FF0646884622462B46002009499A
:1036B000FCF721FF04460D463A4653463046414644
:1036C000FCF719FF04B022462B46BDE8F04DFCF78D
:1036D00015BF00000000F03F943700003333D33FA4
:1036E0000000E93F0000D23F2DE9F0414F1E00EB02
:1036F000C7010446D1E9000115461E4637F006020F
:103700000DD02A463346FCF7FCFE7F1E04EBC703B0
:10371000D3E90023FCF74EFE37F00602F1D1022F69
:1037200025D0042F13D0062F18BFBDE8F0812A46FC
:103730003346FCF7E6FED4E90A23FCF73BFE2A46B3
:103740003346FCF7DEFED4E90823FCF733FE2A46B5
:103750003346FCF7D6FED4E90623FCF72BFE2A46B7
:103760003346FCF7CEFED4E90423FCF723FE2A46B9
:103770003346FCF7C6FED4E90223FCF71BFE2A46BB
:103780003346FCF7BEFED4E90023BDE8F041FCF768
:1037900011BE00002DE9FF4D054621F0004084B028
:1037A0000C46B0F1795F0BDA2846FFF747FD042895
:1037B00008BF00F0AFF9284608B02146BDE8F08DFB
:1037C0002A460B461046FCF79CFE06460F462A4644
:1037D0002346FCF796FE804626488A4632463B46FC
:1037E00005217844FFF780FF83461098029160B36B
:1037F000214A224B40465146FCF783FECDE90001A9
:103800005A4640465146029BFCF77BFE824688465C
:10381000DDE906014FF0FF32FCF754FF5246434604
:10382000FCF769FE32463B46FCF76BFEDDE90623FA
:10383000FCF761FEDDE90023FCF75DFE08B02A46D7
:103840002346BDE8F04DFCF759BE0B465A463046BC
:103850003946FCF756FE084A084BFCF7ABFD4246DA
:103860005346FCF74EFE08B02A462346BDE8F04D0D
:10387000FCF7A0BDDA360000495555555555C5BF72
:103880002DE9F04D04468CB0904821F000471646D3
:1038900098460D460991874206DA20462946FCF7EC
:1038A00074FF002800F0AE808948B8421CDC0998FB
:1038B0000028BCBF85F0004588F00048854A864B4B
:1038C00020462946FCF71AFE04460D46324643467A
:1038D00082488349FCF70FFE22462B46FCF76AFD1F
:1038E000002604460D46B04622462B461046194691
:1038F000FCF707FE8B46824602460B46FCF701FEAC
:103900000246089077480B46009106217844FFF75D
:10391000EBFECDE90310744806217844009B089A19
:10392000FFF7E2FE52465B46FCF7EBFDCDE90510E2
:1039300052465B4620462946FCF7E3FD079100907E
:10394000DDE90310DDE90532FCF734FD079B009A41
:10395000FCF7D7FD32464346FCF72CFD52465B464A
:10396000FCF7CFFD32464346FCF724FD80460E4669
:103970005E4A5F4B07990098FCF7C3FD4246334609
:10398000FCF718FD82468B4622462B46FCF712FDBB
:1039900080464F480E46B84214985BDCFCF7B7FEF1
:1039A0000746424633460591FCF704FDCDE9011078
:1039B0004246334610461946FCF7A3FDDDE90132C5
:1039C000FCF711FE52465B46FCF795FD22462B465E
:1039D000FCF794FD0122FCF775FE3A46059BFCF7C7
:1039E0008DFD04460D460998022101EAA070C0F140
:1039F0000100FCF78CFE0CB022462B46BDE8F04DD2
:103A0000FCF77FBD1498401C384320430BD014981A
:103A1000012812D00CB022462B46BDE8F04D002004
:103A20003449FCF7E0BD0CB025F000432246BDE868
:103A3000F04D00203049FCF7D6BD20462946FFF75F
:103A4000FDFB042808BF00F065F820460CB02946AD
:103A5000BDE8F08D012802BF40460CB0BDE8F08DF6
:103A600000270B463A4620462946FCF747FD5246BA
:103A70005B46FCF743FD04460D46424633460020B4
:103A80001C49FCF7B0FD83463A468846334610464B
:103A9000FCF737FD0022184BFCF78CFC06468A46E3
:103AA00022462B4638464146FCF72BFD324653460C
:103AB000FCF780FC5A464346FCF723FD0CB03A461F
:103AC0004346BDE8F04DFCF775BC00000000303EF9
:103AD0002894E53F182D4454FB21E93F075C14333B
:103AE00026A6813CD8350000FA35000063555555AF
:103AF0005555D53F0000F0BF0000F03F0122FCF714
:103B0000E1BDFCF757BC0022134610461146FCF7F6
:103B10006ABD0000024A00201107FCF7D3BD000077
:103B200001FDFFFF02E008C8121F08C1002AFAD1F8
:103B300070477047002001E001C1121F002AFBD12D
:103B400070470000014908607047000064010020D0
:103B50002DE9FF4F89B09B460446002506E0252845
:103B60000BD05A460B999047641C6D1C2078002896
:103B7000F5D10DB02846BDE8F08F0027B8460122E8
:103B8000474900E0074314F8013F203B02FA03F0E5
:103B90000842F7D120782E2819D114F8010F47F0E8
:103BA00004072A280ED06FF02F022078A0F13001F0
:103BB00009290CD808EB880102EB410100EB010850
:103BC000641CF2E70A98641C50F8048B0A90207871
:103BD0000028CED0642808D0692806D075281ED0C9
:103BE0005A460B9990476D1C58E00A994FF00A0904
:103BF00001C90A91002802DA40422D2102E039056C
:103C000004D52B218DF82010012103E0F90704D001
:103C10002021F7E78A4608AE0DE00021FAE70A996D
:103C20004FF00A0901C90A91F7E74946FCF72CFE53
:103C3000303106F8011D0028F7D1ADEB060000F188
:103C40002009780701D44FF00108C84502DDA8EB30
:103C5000090000E000208046002706E008A85A4638
:103C6000C05D0B9990476D1C7F1C5745F6DB04E047
:103C700030205A460B9990476D1CB8F10001A8F10D
:103C80000108F5DC05E016F8010B5A460B99904740
:103C90006D1CB9F10001A9F10109F4DC641C65E7B0
:103CA000092801002DE9FE4F80460F460025684691
:103CB00001F050F800246FF00F0AE946012658F889
:103CC000240057F82410401A00D54042FCF711FD9B
:103CD0005146FCF763FB59F8241011F0FF4F0BD04D
:103CE000FCF71EFB4FF07E51FCF7E2FA094920F089
:103CF0000040884205DC07E007490844074988423C
:103D000002D306FA04F00543641C032CD7DB2846D3
:103D1000BDE8FE8F295C0F3E666666C19A99D900A0
:103D20002DE9F04D8D4F21F0004A86B005460C4636
:103D3000BA452ADBAAEB070028430AD08848824507
:103D400001DC1AD1CDB106B02846BDE8F04DFFF731
:103D5000D5BE844A844B2846FCF7D3FB07460E4663
:103D6000824A834B28462146FCF7CBFB06B03A46F5
:103D70003346BDE8F04DFCF71DBB0120FFF7E2FE26
:103D800006B0BDE8F04DFFF7BEBE7A48824542DA84
:103D9000BAF1795F0BDA2846FFF750FA042808BF1A
:103DA000FFF7B8FE284606B02146BDE8F08D2A464A
:103DB0000B461046FCF7A5FB834602466E480E46AE
:103DC0000B4606217844FFF78FFC5A463346FCF732
:103DD00098FB804669488A465A463346042178440F
:103DE000FFF782FC5A463346FCF78BFB00223B462A
:103DF000FCF7E0FA02460B4640465146FCF7F3FB5F
:103E00002A462346FCF77DFB06B02A462346BDE83A
:103E1000F04DFCF7CFBA284624F0004100223D4681
:103E20003B46FCF76BFB4FF0FF32FCF74BFC0646C2
:103E3000024653480F460B4606217844FFF754FCD0
:103E400032463B46FCF75DFBCDE900014D4832466A
:103E50003B4604217844FFF747FC32463B46FCF7DB
:103E600050FB00222B46FCF7A5FA83460291304610
:103E7000394602F0B3F8804643480D46504517DCFA
:103E8000DDE900015A46029BFCF7ADFB42462B469A
:103E9000FCF737FB42462B46FCF78CFA0122FCF775
:103EA00011FC304A304BFCF726FB304A304B4CE0DB
:103EB0004FF0000A52460B464046FCF77BFACDE92C
:103EC000031052462B4610461946FCF71AFB3246A1
:103ED0003B46FCF713FBDDE90332FCF784FB0646A7
:103EE0000F46DDE900015A46029BFCF77CFB834646
:103EF0000091012230463946FCF7E4FB194A1A4B7F
:103F0000FCF7FCFA06460F46012240462946FCF71C
:103F1000D9FB5A46009BFCF7F4FA32463B46FCF7C5
:103F2000EAFA06460F46012250462946FCF7CAFB2C
:103F30000E4DDFF858802A464346FCF7DFFA32463A
:103F40003B46FCF7DBFA2A464346FCF7D7FA002C3F
:103F5000D8BF81F0004106B0BDE8F08D0000F03F11
:103F60000000F07F075C143326A6913C182D4454C2
:103F7000FB21F93F0000E03F102F0000262F00003A
:103F80009A2E0000B02E00003333EF3FFB21E93FB3
:103F90002DE9F84F04460D4621F000400091734989
:103FA000814211DC7249884201DC06D12CB12046E5
:103FB0002946BDE8F84FFFF7A1BD6E48002DCCBFE4
:103FC0006D496E49BDE8F88F6D49814211DD6D493B
:103FD0008142D8BF4FF0FF366DDD20462946FFF7FE
:103FE0002DF9042808BFFFF795FD20462946BDE8B6
:103FF000F88F6549654F25F00045814233DD6449FE
:10400000814219DD002632464FF080432046294682
:10401000FCF7D0F980468A46012220462946FCF763
:1040200051FB00223B46FCF766FA42465346FCF73A
:10403000DAFA04460D463EE001260022BA463B4627
:1040400020462946FCF7B6F980460F460022534623
:1040500020462946FCF74FFA42463B46FCF7C3FA96
:1040600004460D4627E04B4981421BDDDFF828A1BD
:1040700002260022534620462946FCF742FA002237
:104080003B46FCF797F980460F46002253462046F0
:104090002946FCF730FA42463B46FCF7A4FA0446B0
:1040A0000D4608E0032622462B4600203B49FCF73C
:1040B0009AFA04460D4622462B4610461946FCF74E
:1040C00020FA8B46824602460B46FCF71AFA074650
:1040D0000246334888460B4606217844FFF704FB26
:1040E00052465B46FCF70DFA82462E488B463A460E
:1040F000434605217844FFF7F7FA3A464346FCF772
:1041000000FA02460B46002E504659460CDAFCF7E0
:1041100051F922462B46FCF7F4F901B022462B4612
:10412000BDE8F04FFCF7EAB9FCF744F922462B460C
:10413000FCF7E7F91C4A7A4402EBC603D3E90023F3
:10414000FCF7D9F922462B46FCF7D5F9174A7A44F1
:1041500002EBC603D3E90023FCF7D0F9009A002A4A
:10416000B8BF81F00041BDE8F88F000000001044A6
:104170000000F07F182D4454FB21F93FFB21F9BFCB
:104180000000DC3F0000203E0000F33F0000F03F55
:104190000000E63F008003400000F83F0000F0BF51
:1041A000B22C0000702C00000E2C0000D62B00005A
:1041B0002DE9F04D9446CCF1000423F000464CEA82
:1041C0000404594F46EAD4749A46884621F00042C6
:1041D000BC4206D8454240EA050442EAD474BC42D7
:1041E00004D9BDE8F04D6246FFF78BBCAAF14055FB
:1041F000A5F17F6555EA0C040BD0022404EAAA74E9
:104200004A4DDFF82CE144EAD87452EA000B04D09E
:104210000CE0BDE8F04DFFF7BBBE002C14BF012C35
:10422000BDE8F08D022C30D0032C32D056EA0C0BB6
:104230000AD0BE4220D1BA4209D126F0804622F0EF
:1042400080423346114617E000291ADB25E0DFF8EB
:10425000E4B0FB44002C04BFDBE90001BDE8F08DB5
:10426000012C02BFDBE9000181F00041BDE8F08DC7
:10427000022C0AD0032C0CD0BA4212D1B8F1000F94
:104280000BDA2A482C49BDE8F08D28462B49BDE8B9
:10429000F08D28467146BDE8F08D24482849BDE8D8
:1042A000F08D921B12153C2AC4BF204F244E10DC07
:1042B000BAF1000FBEBF12F13C0F00273E4608DBEB
:1042C0006246FCF790F921F00041FFF761FE0746D6
:1042D0000E4694B1012C08BF86F000460DD0194A55
:1042E000194B022C3846314615D0FCF704F92A4602
:1042F000BDE8F04D114BFCF7FEB8002213463846DE
:104300003146FCF775FA04BF0220FFF71BFC384664
:104310003146BDE8F08DFCF7EEF82A46BDE8F04DD9
:10432000064BFCF7EBB800000000F07F182D44545A
:10433000FB2109C09A2B0000FB21F9BFFB2109409A
:10434000FB21F93F075C143326A6A13C00B5244BA2
:1043500021F0004287B09A42DCBF0022134629DDDB
:10436000204B9A4208D140B94FF00100FFF7EAFB19
:10437000FFF7C9FB07B000BD03DBFFF7BFFB07B0CA
:1043800000BD02AAFEF76EFF10F0030104BF0DF19D
:10439000080C9CE80F000DD0012001290ED0022945
:1043A00014D00DF1080C00909CE80F00FFF7F2F913
:1043B00007B000BDFFF71AF907B000BD0DF1080CFA
:1043C00000909CE80F00FFF7E5F905E00DF1080CFF
:1043D0009CE80F00FFF70AF907B081F0004100BD2B
:1043E000FB21E93F0000F07F08B560B120208DF887
:1043F000000028208DF8010030208DF802003820C0
:104400008DF8030004E0A32204216846FBF7DFFED9
:104410006A46042140F69E2001F0FEFC01F0C8F936
:1044200008BD00003EB5044602208DF80000CA20F9
:104430008DF80100E3208DF8020009208DF80300BB
:104440006A460421682001F0E7FCA3208DF80000F3
:10445000610609D5C0218DF80110C8218DF8021020
:10446000C2218DF8031005E08DF801008DF80200DF
:104470008DF8030014F4C07F09D0C4218DF8041016
:10448000CC218DF80510C6218DF8061005E08DF8B9
:1044900004008DF805008DF806008DF808008DF8F1
:1044A00007008DF809006A460A2140F6A72001F0AE
:1044B000B3FCA0074FF0D80503D020208DF80000F2
:1044C00001E08DF800506A46012140F6B62001F067
:1044D000A3FCA00601D5012000E0002000F090F828
:1044E00014F4C07F1ED0E0050AD5B2208DF800007C
:1044F0008B208DF80100B6208DF802009B2009E08A
:10450000B0208DF8000080208DF80100B4208DF8D7
:10451000020090208DF803006A46042140F6A22094
:1045200001F07AFCE0074FF40B6323D0F8208DF8FC
:1045300000006A460121184601F06EFCFA210720AE
:1045400000F04AFB072000F015FB012000F032FBD1
:10455000642000F0D5FB4FF4FA7000F0E1FBC821B5
:10456000254800F0CFFA282000F0E4FA0A2000F0F5
:10457000F1FA06E08DF800506A460121184601F074
:104580004BFCA00703D5D9208DF8000001E08DF881
:1045900000506A46012140F23D7001F03DFC600789
:1045A00001D5012000E0002000F046F8E00601D52A
:1045B000012000E00020FFF717FF104D44F0080035
:1045C000688101F0F5F80020A873600601D5062087
:1045D000A87314F4C07F02D0A87B801DA87314F0C8
:1045E000140F02D0A87B1030A873A00702D0A87BBC
:1045F000001DA87300203EBD09E3CA02F40100209B
:104600000EB54FF4976308B105A000E007A007C8F6
:104610008DE807006A460921184601F0FDFB0EBD32
:10462000B8AAB38DB4980D355D000000B8AAAAAA47
:10463000B088C3C5C700000008B560B1C0208DF8C0
:104640000000C2208DF80100C4208DF80200C620B1
:104650008DF8030004E08B2204216846FBF7B7FDC8
:104660006A46042140F6982001F0D6FB01F0A0F83C
:1046700008BD0000C8234FF48062024940F6F630BE
:1046800000F076BF8C6000082DE9FF4F89B0164618
:10469000DDE916520024DFF854810F4681462C8054
:1046A000A24698F80E00694601F010F84FF0FF3B63
:1046B00018B158460DB0BDE8F08FB8F80A0010F0F8
:1046C000140F4CD0BDF800109DF8022049BA09041F
:1046D00041EA022C9DF803104CEA010CC6F800C018
:1046E000BDF804109DF8062049BA090441EA0223E6
:1046F0009DF807100B437360BDF808109DF80A2061
:1047000049BA090441EA02219DF80B201B14114308
:10471000B160BDF80C209DF80E4052BA120442EA76
:1047200004229DF80F4009142243F2604FEA2C4600
:1047300012147643494303FB036302FB021119443D
:104740001024A1F17061B1F1007F04D901F030F8BB
:10475000A5F800A0ADE7298841F4807129804106C1
:104760006A460ED51119A41D0B885BBA3B804B8895
:104770005BBA7B80898849BAB980298841F00801F1
:10478000298010F4C07F11D01119A41D0B885BBAC9
:10479000A9F800304B885BBAA9F80230898849BA79
:1047A000A9F80410298841F070012980800718D0E9
:1047B0001444E07800F0C00500F03F016078C007C5
:1047C00007D0C80801F00701D8F80020491C02B141
:1047D00090476078000704D5D8F8041009B1A809FB
:1047E00088470C9801F042FB002063E7F4010020A9
:1047F0002DE9FF41054603A800F070FDBDF80C004F
:10480000460CC7032F48018901F0030055F820200A
:10481000480700D55242C1F3C10055F82040880630
:1048200000D56442C1F3811055F82030C80500D589
:104830005B42A2FB0715D01700FB075002FB0600E6
:10484000820042EA9170A4FB0725E11701FB0751A2
:1048500004FB06118C0044EA9271A3FB0745DA17AA
:1048600002FB075203FB0622930043EA9472030EF5
:104870008DF80030030C8DF80130030A8DF80230FA
:104880008DF80300080E8DF80400080C8DF8050063
:10489000080A8DF80600100E8DF80800100C8DF82F
:1048A0000900100A8DF80A008DF807108DF80B200A
:1048B0006A460C214FF4257001F0AEFA04B0BDE851
:1048C000F0810000F401002030B5044613A185B04A
:1048D00007C98DE807004FF0FF35C82C16D8C8204F
:1048E000B0FBF4F1491E080A8DF80C008DF80D108C
:1048F00003AA022140F2162001F08EFA30B96A466E
:104900000C2140F6C12001F087FA10B1284605B00D
:1049100030BD054884810020F9E70000FEF2ABC4F9
:10492000AAF1DFDFBBAFDFDFF4010020F8B53049CB
:10493000098901F0030250F822404A0700D5644279
:10494000C1F3C10250F822308A0600D55B42C1F3A0
:10495000811250F82220C80500D55242254984FB17
:104960000140850045EA947083FB014382FB0121ED
:10497000950F45EA8105010E8DF80010010C8DF8A8
:104980000110010A8DF80210A40F8DF8030044EA0B
:1049900083046A4604214FF4747001F03DFA4FF02D
:1049A000FF3688B9200E8DF80000200C8DF801002C
:1049B000200A8DF802008DF803406A4604214FF466
:1049C000757001F029FA08B13046F8BD280E8DF84F
:1049D0000000280C8DF80100280A8DF802008DF8DF
:1049E00003506A4604214FF4767001F015FAF8BDC1
:1049F000F401002009E3CA022DE9FF4104463CA06E
:104A000002AB006802903BA0006803903AA00668E1
:104A10003AA0056804F00300195C8DF80010C4F397
:104A2000C1015A5C8DF80120C4F381129B5C8DF8A2
:104A3000023003AB185C8DF80400585C8DF805005B
:104A4000985C8DF806006A46032140F2264001F08A
:104A5000E3F94FF0FF37E0BB01AA032140F22A40FF
:104A600001F0DAF9A8BBCDE9006560070BD59DF828
:104A7000000040F001008DF800009DF8040040F0B7
:104A800001008DF80400A0060BD59DF8010040F050
:104A900001008DF801009DF8050040F001008DF83F
:104AA0000500E0050BD59DF8020040F001008DF8EF
:104AB00002009DF8060040F001008DF806006A46ED
:104AC00003214FF4886001F0A7F910B901AA03216E
:104AD00000E004E040F2314001F09EF918B13846A0
:104AE00004B0BDE8F081064804810020F8E700002A
:104AF0004CCD6C000CC92C0036567600264666005C
:104B0000F40100204FF47A7290FBF2F008B54843AC
:104B1000010E8DF80010010C8DF80110010A8DF8BE
:104B200002108DF803006A4604214FF4AE7001F0C4
:104B300073F908BD0521B0FBF1F008B5010A8DF845
:104B400000108DF801006A4602214FF4AD7001F0AB
:104B500063F908BD0521B0FBF1F008B5010A8DF835
:104B600000108DF801006A4602214FF4AC7001F08C
:104B700053F908BD08B500218DF80010C10702D017
:104B800030218DF80010810705D59DF8001041F007
:104B90000C018DF80010400705D59DF8000040F08D
:104BA00003008DF800006A4601214FF4A47001F063
:104BB00033F908BD08B560B1042800D90420401EAF
:104BC0008DF800006A46012140F24F1001F024F9EF
:104BD00008BD0120F3E700002DE9FC410546400730
:104BE0004FF0FF367CD0B1F5C86F79D80846FBF797
:104BF00089FD3E49FBF794FB074601A800F050FBF6
:104C00009DF80400022806D004280DD008282ED0D4
:104C1000102865D134E00E213846FBF7BFFBFBF7C7
:104C2000A0FD84B2324907E00D213846FBF7B6FB00
:104C3000FBF797FD2F4984B23846FBF73FFBFBF7A4
:104C400090FD210A8DF8001080B28DF80140010A14
:104C50008DF802108DF80300E8076C4620D022463C
:104C600002214FF4EA7001F0D7F8C8BB11E00C2123
:104C70003846FBF793FBFBF774FD84B21E49DBE774
:104C80000B213846FBF78AFBFBF76BFD84B21B490F
:104C9000D2E7A21C02214FF4927001F0BDF8F8B9DE
:104CA000A8070DD56A4602214FF4EC7001F0B4F864
:104CB000B0B9A21C02214FF4947001F0ADF878B99C
:104CC000680710D56A4602214FF4EE7001F0A4F88F
:104CD00030B9A21C02214FF4967001F09DF810B17A
:104CE0003046BDE8FC810020FBE70000000048439F
:104CF000000040460000C045000040450000C044A0
:104D00000521B0FBF1F008B5010A8DF800108DF80F
:104D100001006A4602214FF4EF7001F07DF808BDF2
:104D20000521B0FBF1F008B5010A8DF800108DF8EF
:104D300001006A4602214FF4ED7001F06DF808BDE4
:104D400038B504468DF8000069460320ABBE204606
:104D500038BD00002DE9FC47054625486B46042276
:104D600040680D210078FDF70EFA10B10720BDE86C
:104D7000FC879DF800001C2101EAD0029DF8030089
:104D8000DFF87090C0F301131A438DF804209DF8EA
:104D90000120C0F3810301EAD2021A438DF80520F5
:104DA0009DF8022000F0030001EAD2010143002433
:104DB000114F8DF80610A04601AE305D10B145F8D8
:104DC000249009E045F824800CE055F82400394689
:104DD000FBF774FA45F82400305D401E10F0FF0028
:104DE0003055F2D1641CE4B2032CE6D30020BEE7B8
:104DF000DC0000207B14AE3E1D5A843F2DE9FE4F9F
:104E000005460120C14E8DF800004FF000088DF8D6
:104E1000018030680C461746817C70686B46022220
:104E20000078FDF703FA4FF0FF3A00287AD1C82046
:104E3000FDF7E4FB8DF8008030686B460122C17BF2
:104E400070680078FDF7F2F90028EFD130686B4602
:104E50000122417970680078FDF7E8F90028E5D172
:104E600030686B460122817C70680078FDF7DEF9BE
:104E70000028DBD130686B460122C17D7068007864
:104E8000FDF7D4F90028D1D130686B4601220179B1
:104E900070680078FDF7CAF90028C7D14FF00C09F7
:104EA0008DF8009030686B460122017970680078B7
:104EB000FDF7BCF9002835D10F20FDF79FFBB06A44
:104EC0006B460122407A8DF8000030688178706866
:104ED0000078FDF7ABF9002824D1B06A6B460122B7
:104EE000007A8DF800003068417870680078FDF72E
:104EF0009DF9002873D1B06A807A0FB140F0E000CC
:104F00008DF8000030686B46012281797068007866
:104F1000FDF78CF9002862D12FB1B06AC07A40F059
:104F2000E00001E04AE018208DF8000030686B4690
:104F30000122C17970680078FDF778F9F0BB17B1EC
:104F4000C820FDF75BFB40208DF8000030686B4601
:104F50000122017970680078FDF768F970BB78204C
:104F60008DF8000030686B46012241797068007846
:104F7000FDF75CF910BB3220FDF740FB8DF8008097
:104F8000306847466B464179706801220078FDF72A
:104F90004DF998B931687068B046897A00786B46E7
:104FA0000222FDF7F0F848B9BDF80000AF6040BA42
:104FB000B0FBF9F06F60C6B22F6000E00FE0A760B1
:104FC00067602760002739E0D8F80010D8F804009F
:104FD0006B46C97A00780C22FDF7D5F810B150461F
:104FE000BDE8FE8FBDF80000236840BA02B2BDF8EC
:104FF00002001A4440BA01B2BDF80400226062689F
:1050000040BA11446160A16800B20844A060BDF8D4
:1050100006002B6840BA02B2BDF808001A4440BA34
:1050200001B2BDF80A002A606A6840BA114469609A
:10503000A96800B208447F1CFFB2A860B742C3D37E
:1050400028688322C117090441EA104100040023A3
:10505000FBF78CF832460023FBF788F82860686875
:105060008322C117090441EA104100040023FBF721
:105070007DF832460023FBF779F86860A868832240
:10508000C117090441EA104100040023FBF76EF840
:1050900032460023FBF76AF8A86020684FF40065E9
:1050A000C117090441EA104100042A460023FBF716
:1050B0005DF832460023FBF759F8206060682A4605
:1050C000C117090441EA104100040023FBF74EF820
:1050D00032460023FBF74AF86060A0682A46C117F1
:1050E000090441EA104100040023FBF73FF832466F
:1050F0000023FBF73BF8A060002802DDA0F580301C
:1051000001E000F58030A060002069E7DC000020AD
:105110002DE9F84F82462F488946002540686B46A6
:10512000032200780D21FDF72EF810B10720BDE80D
:10513000F88F9DF80000002400F01F008DF800009B
:105140009DF801006F4600F01F008DF801009DF8EA
:1051500002004FF0010800F01F008DF802005AF81D
:10516000241059F82400081A00D54042FBF7C1FA70
:105170006FF00F01FBF712F90646385DE0B1164AF1
:10518000DFF858B004E059461046FBF797F802469E
:10519000385D401E10F0FF003855F4D111463046FE
:1051A000FBF7BEF84FF07E51FBF782F80C4920F078
:1051B0000040884205DC07E00A483044B0F1D97F5E
:1051C00002D908FA04F00543641C032CC7DB284607
:1051D000ADE70000DC0000200000C84154E3853F3B
:1051E000295C0F3E0000E0BE90F90010002902DDAE
:1051F0004FF00000704702DA4FF00400704790F95A
:105200000110002902DD4FF00100704702DA4FF073
:105210000500704790F90200002802DD4FF00200FF
:10522000704702DA4FF0060070474FF007007047F2
:10523000012080F31088FDF737FA002080F31088F2
:10524000FDF7E6FDFCE700002DE9F041134D20F0ED
:105250000104002695F8240010B10020BDE8F0817B
:10526000A87A4FF0FF3838B120402F7C2874A04234
:1052700000D0464624B901E04046EFE7287D40B122
:10528000012000F031FE3CB100F092FA20B12F7401
:10529000F2E7002000F028FE3046DFE7DC000020C7
:1052A0000D4A517A41B1012908D002290FD00329B2
:1052B0000FD04FF0FF307047022100E00421017051
:1052C000D17C11B10178490001700020704708219C
:1052D000F5E71021F3E70000DC0000200F4A517AC7
:1052E00041B1012909D0022911D0032912D04FF070
:1052F000FF3070474FF4804101E041F69C7101801E
:10530000D17C11B1018849080180002070474FF419
:105310008051F4E74FF40061F1E70000DC00002069
:105320000B49097A39B1012907D002290AD003298A
:105330000BD0002103E0FA2101E04FF4FA71018063
:10534000002070474FF47A71F9E74FF4FA61F6E7FD
:10535000DC0000200A49097A41B1012908D002295C
:105360000AD003290AD04FF0FF307047054900E00A
:1053700005490160002070470449FAE70449F8E74D
:10538000DC0000200000034300008342333303426B
:10539000333383410C49C97A072913D2DFE801F07E
:1053A0001204060A0C0E1000BC2100E062210180EC
:1053B000002070472A21FAE71421F8E70A21F6E7CE
:1053C0000521F4E70021F2E7DC000020054991F80F
:1053D000242012B14FF0FF307047C98901800020AE
:1053E00070470000DC0000202DE9FC414C4C80207F
:1053F0008DF8000020686B460122817C606800788F
:10540000FCF714FF4FF0FF37002832D16420FDF77E
:10541000F5F800258DF8005020686B460122817C4C
:1054200060680078FCF702FF002870D120686B46A6
:105430000622817D60680078FCF7A5FE002866D111
:105440009DF805009DF80310C007400F01F0010111
:1054500040EA41019DF801004FF0010600F0010013
:10546000014309D0012905D0022915D02DA0FDF74F
:10547000D5FE4CE0E67410E020686B460122C1784E
:1054800060680078FCF77FFE40BB9DF8000010F0DC
:105490000F0020D0042822D0E574FF2004F80A0F62
:1054A0004FF6FF7104F8020C04F8010C6070A18043
:1054B000A0712072A67026766576E572A572E56009
:1054C00025616561A576E576A5834FF4FA6000F065
:1054D0006DFB18B907E01D48FDF7A0FE17E01CA002
:1054E000FDF79CFEC6E7022000F082FA78B92A2078
:1054F00000F0C4FB58B9322000F0F6FB38B90020A8
:10550000FFF7A2FE18B9002000F0A6FA10B1384645
:10551000BDE8FC81002000F023FC0020F8E700003B
:10552000DC000020556E737570706F7274656420B6
:10553000736F6674776172652070726F64756374DF
:10554000207265762025642E0A000000486F00084E
:1055500048616C662073656E7369746976697479E5
:10556000207061727420666F756E642E0D0A0000E3
:105570002DE9FF4FDFF898A0054685B09AF8250081
:10558000914688464FF0FF3BC0BBB8F1000F35D0C5
:1055900000241FE0281B102800DD102086B208EB35
:1055A00004073A463146204600F036FC30BB6A46D6
:1055B0003146204600F0D2F800BB384632466946F4
:1055C000FAF717FE20B16FF0010009B0BDE8F08FC7
:1055D000A01984B2AC42DDD34FEA19208DF8100037
:1055E0008DF81190DAF80000544604AB817EDAF8A9
:1055F000040002220078FCF719FE08B15846E4E7DF
:10560000012084F825000898E0840020DDE70000F0
:10561000DC0000202DE9F84304464FF0FF3928282C
:1056200044D80727284D00267CB1012000F0F4FA69
:1056300020208DF800004FF00108012C17D0052C18
:1056400018D88DF8018005201FE0002000F0E4FA52
:105650008DF800608DF8017028686B460222817C0D
:1056600068680078FCF7E2FD00BB2E7529E08DF834
:105670000160E8E7142C04D802208DF801000A200C
:1056800003E003208DF80100142000F0F7FA9DF8E4
:1056900001006B4607EB80108DF80100286802229C
:1056A000817C68680078FCF7C1FD10B14846BDE810
:1056B000F8830820A8722E7385F814800020FFF765
:1056C000C3FD0020F3E70000DC0000202DE9F843D3
:1056D000214E0546174696F8240089464FF0FF38BC
:1056E00090B3B07A80B330686B460222817A7068DA
:1056F0000078FCF748FD38BBBDF8000044BAAC4266
:1057000002D2002038701FE070684188B4EB510F5E
:1057100011D9316800786B46497C0122FCF733FDD2
:1057200090B99DF80000C00605D500F041F86FF073
:105730000100BDE8F8833068EAB24B46C17A706870
:105740000078FCF720FD08B14046F2E7B4FBF5F025
:10575000401E38700020ECE7DC000020F8B5170090
:105760000D464FF0FF341FD0104EB17AE1B1010A5F
:105770008DF80010C0B28DF801004119706842899F
:10578000914211D8316800786B46097E0222FCF7FD
:105790004DFD48B93068EAB23B46417D70680078FB
:1057A000FCF7F1FC002800D02046F8BDDC0000200A
:1057B000F8B5524D4FF0FF36A87A00287CD000246F
:1057C0008DF8004028686B460122C17B686800782C
:1057D000FCF72CFD00286FD128686B460122417927
:1057E00068680078FCF722FD002865D128686B46C0
:1057F0000122017968680078FCF718FD00287AD149
:1058000095F82400C8B30C208DF8000028686B467A
:105810000122017968680078FCF708FD00286AD148
:10582000C0208DF80000A87AC00702D0E0208DF8D3
:10583000000028686B460122017968680078FCF74F
:10584000F5FC002857D1687C18B102208DF80000C3
:1058500001E08DF8004028686B460122C17B686832
:105860000078FCF7E3FC38BB8DF8004028686B46F5
:10587000012241796868007839E0FFE704208DF85B
:10588000000028686B460122017968680078FCF7FF
:10589000CDFC88B9A87C80B9A87AC0070DD060205B
:1058A0008DF8000028686B4601220179686800784D
:1058B000FCF7BCFC00B902E01DE04020F0E7687C8A
:1058C00018B101208DF8000001E08DF80040286833
:1058D0006B460122C17B68680078FCF7A7FC50B9D1
:1058E0002868064B01224179686810330078FCF77C
:1058F0009DFC002800D03046F8BD0000DC000020F0
:105900002DE9F047394E82468AB096F824000F46BA
:1059100020B1002000F00EF9012500E0002507A8C5
:10592000FFF7FEFC06A8FFF7BBFC09A8FFF732FD56
:1059300008A8FFF74BFD96F80A9096F8108000240F
:10594000002239465046FFF759FA10B1641C022C68
:10595000F6DB022C1AD00024012203A96846FFF7C7
:105960004DFA10B1641C022CF6DB022C0ED003A9F8
:105970003846FEF797F9C7B269465046FFF7C8FBAD
:1059800010F0FF0F4FF0000402D002E0002403E00B
:1059900001240FB944F00204FF2030727072F072DB
:1059A0004FF6FF71F181B072307401203073BDF891
:1059B0001C0000F0FBF89DF8180000F019F8BDF885
:1059C000240000F05BF9BDF8200000F08DF9484696
:1059D00000F0C6F94046FFF737FC15B1012000F092
:1059E000A9F80AB02046BDE8F0870000DC000020DE
:1059F00038B5184C4FF0FF35A17A19B3022806D0FC
:105A0000042806D008280ED010281BD10DE0002055
:105A100000E008208DF80000607A9DF80010B0EBDF
:105A2000D10F04D005E01020F4E71820F2E70020A1
:105A300038BD20686B460122C17960680078FCF7A8
:105A4000F5FB08B1284638BD9DF80000C00860721B
:105A5000EDE70000DC000020F8B5354D0446A87CD9
:105A6000A04201D10020F8BD31484FF0FF366B460F
:105A7000D0E900104FF001020979007834B3FCF747
:105A800082FB70BB9DF800006B4620F020008DF873
:105A9000000028680122017968680078FCF7C6FBDD
:105AA000F8B90320FCF7AAFD02208DF8000095F854
:105AB000220078B382202BE028686B460122017D0A
:105AC00068680078FCF7B2FB58B92EE0FCF75BFB86
:105AD00038B9A87AC0079DF8000003D040F0200034
